8=FIX.4.4|9=127|35=D|49=CLIENT1|56=EXCHANGE|34=1|52=20250301-10:00:00.000|11=A1|55=ABC|54=1|38=100|40=2|44=50.00|59=0|60=20250301-10:00:00.000|10=183|
8=FIX.4.4|9=133|35=8|49=EXCHANGE|56=CLIENT1|34=2|52=20250301-10:00:01.000|37=1000|17=1|150=0|39=0|55=ABC|54=1|151=100|14=0|6=0.00|11=A1|31=0.00|32=0|10=050|
8=FIX.4.4|9=136|35=8|49=EXCHANGE|56=CLIENT1|34=3|52=20250301-10:00:02.000|37=1000|17=2|150=F|39=1|55=ABC|54=1|151=60|14=40|6=50.00|11=A1|31=50.00|32=40|10=246|
8=FIX.4.4|9=136|35=8|49=EXCHANGE|56=CLIENT1|34=4|52=20250301-10:00:03.000|37=1000|17=3|150=F|39=1|55=ABC|54=1|151=30|14=70|6=50.00|11=A1|31=50.00|32=30|10=248|
8=FIX.4.4|9=136|35=8|49=EXCHANGE|56=CLIENT1|34=5|52=20250301-10:00:04.000|37=1000|17=4|150=F|39=2|55=ABC|54=1|151=0|14=100|6=50.00|11=A1|31=50.00|32=30|10=243|
8=FIX.4.4|9=127|35=D|49=CLIENT1|56=EXCHANGE|34=6|52=20250301-10:00:05.000|11=B1|55=XYZ|54=2|38=200|40=2|44=25.50|59=0|60=20250301-10:00:05.000|10=021|
8=FIX.4.4|9=133|35=8|49=EXCHANGE|56=CLIENT1|34=7|52=20250301-10:00:06.000|37=1001|17=5|150=0|39=0|55=XYZ|54=2|151=200|14=0|6=0.00|11=B1|31=0.00|32=0|10=137|
8=FIX.4.4|9=137|35=8|49=EXCHANGE|56=CLIENT1|34=8|52=20250301-10:00:07.000|37=1001|17=6|150=F|39=2|55=XYZ|54=2|151=0|14=200|6=25.50|11=B1|31=25.50|32=200|10=130|
8=FIX.4.4|9=128|35=D|49=CLIENT1|56=EXCHANGE|34=9|52=20250301-10:00:08.000|11=C1|55=FOO|54=1|38=150|40=2|44=10.00|59=0|60=20250301-10:00:08.000|10=240|
8=FIX.4.4|9=134|35=8|49=EXCHANGE|56=CLIENT1|34=10|52=20250301-10:00:09.000|37=1002|17=7|150=0|39=0|55=FOO|54=1|151=150|14=0|6=0.00|11=C1|31=0.00|32=0|10=151|
8=FIX.4.4|9=135|35=8|49=EXCHANGE|56=CLIENT1|34=11|52=20250301-10:00:10.000|37=1002|17=8|150=F|39=1|55=FOO|54=1|151=100|14=50|6=10.00|11=C1|31=10.00|32=50|10=185|
8=FIX.4.4|9=121|35=F|49=CLIENT1|56=EXCHANGE|34=12|52=20250301-10:00:11.000|41=C1|37=1002|11=C2|55=FOO|54=1|38=150|60=20250301-10:00:11.000|10=143|
8=FIX.4.4|9=139|35=8|49=EXCHANGE|56=CLIENT1|34=13|52=20250301-10:00:12.000|37=1002|17=9|150=4|39=4|55=FOO|54=1|151=0|14=50|6=10.00|11=C2|41=C1|31=0.00|32=0|10=079|
8=FIX.4.4|9=127|35=D|49=CLIENT1|56=EXCHANGE|34=14|52=20250301-10:00:13.000|11=D1|55=BAR|54=2|38=100|40=2|44=99.00|59=0|60=20250301-10:00:13.000|10=149|
8=FIX.4.4|9=133|35=8|49=EXCHANGE|56=CLIENT1|34=15|52=20250301-10:00:14.000|37=1003|17=10|150=0|39=0|55=BAR|54=2|151=100|14=0|6=0.00|11=D1|31=0.00|32=0|10=039|
8=FIX.4.4|9=121|35=F|49=CLIENT1|56=EXCHANGE|34=16|52=20250301-10:00:15.000|41=D1|37=1003|11=D2|55=BAR|54=2|38=100|60=20250301-10:00:15.000|10=147|
8=FIX.4.4|9=139|35=8|49=EXCHANGE|56=CLIENT1|34=17|52=20250301-10:00:16.000|37=1003|17=11|150=4|39=4|55=BAR|54=2|151=0|14=0|6=0.00|11=D2|41=D1|31=0.00|32=0|10=066|
8=FIX.4.4|9=129|35=D|49=CLIENT1|56=EXCHANGE|34=18|52=20250301-10:00:17.000|11=E1|55=MSFT|54=1|38=50|40=2|44=300.00|59=0|60=20250301-10:00:17.000|10=079|
8=FIX.4.4|9=135|35=8|49=EXCHANGE|56=CLIENT1|34=19|52=20250301-10:00:18.000|37=1004|17=12|150=0|39=0|55=MSFT|54=1|151=50|14=0|6=0.00|11=E1|31=0.00|32=0|10=236|
8=FIX.4.4|9=143|35=G|49=CLIENT1|56=EXCHANGE|34=20|52=20250301-10:00:19.000|41=E1|37=1004|11=E2|55=MSFT|54=1|38=50|40=2|44=305.00|59=0|60=20250301-10:00:19.000|10=068|
8=FIX.4.4|9=141|35=8|49=EXCHANGE|56=CLIENT1|34=21|52=20250301-10:00:20.000|37=1005|17=13|150=5|39=0|55=MSFT|54=1|151=50|14=0|6=0.00|11=E2|41=E1|31=0.00|32=0|10=140|
8=FIX.4.4|9=137|35=8|49=EXCHANGE|56=CLIENT1|34=22|52=20250301-10:00:21.000|37=1005|17=14|150=F|39=2|55=MSFT|54=1|151=0|14=50|6=305.00|11=E2|31=305.00|32=50|10=053|
8=FIX.4.4|9=128|35=D|49=CLIENT1|56=EXCHANGE|34=23|52=20250301-10:00:22.000|11=F1|55=ABC|54=2|38=200|40=2|44=45.25|59=0|60=20250301-10:00:22.000|10=206|
8=FIX.4.4|9=135|35=8|49=EXCHANGE|56=CLIENT1|34=24|52=20250301-10:00:23.000|37=1006|17=15|150=0|39=0|55=ABC|54=2|151=200|14=0|6=0.00|11=F1|31=0.00|32=0|10=174|
8=FIX.4.4|9=141|35=8|49=EXCHANGE|56=CLIENT1|34=25|52=20250301-10:00:24.000|37=1006|17=16|150=F|39=1|55=ABC|54=2|151=100|14=100|6=45.25|11=F1|31=45.25|32=100|10=006|
8=FIX.4.4|9=142|35=G|49=CLIENT1|56=EXCHANGE|34=26|52=20250301-10:00:25.000|41=F1|37=1006|11=F2|55=ABC|54=2|38=200|40=2|44=44.50|59=0|60=20250301-10:00:25.000|10=149|
8=FIX.4.4|9=144|35=8|49=EXCHANGE|56=CLIENT1|34=27|52=20250301-10:00:26.000|37=1007|17=17|150=5|39=1|55=ABC|54=2|151=100|14=100|6=45.25|11=F2|41=F1|31=0.00|32=0|10=120|
8=FIX.4.4|9=139|35=8|49=EXCHANGE|56=CLIENT1|34=28|52=20250301-10:00:27.000|37=1007|17=18|150=F|39=1|55=ABC|54=2|151=40|14=160|6=44.97|11=F2|31=44.50|32=60|10=202|
8=FIX.4.4|9=138|35=8|49=EXCHANGE|56=CLIENT1|34=29|52=20250301-10:00:28.000|37=1007|17=19|150=F|39=2|55=ABC|54=2|151=0|14=200|6=44.88|11=F2|31=44.50|32=40|10=146|
8=FIX.4.4|9=128|35=D|49=CLIENT1|56=EXCHANGE|34=30|52=20250301-10:00:29.000|11=G1|55=XYZ|54=1|38=180|40=2|44=20.00|59=0|60=20250301-10:00:29.000|10=080|
8=FIX.4.4|9=135|35=8|49=EXCHANGE|56=CLIENT1|34=31|52=20250301-10:00:30.000|37=1008|17=20|150=0|39=0|55=XYZ|54=1|151=180|14=0|6=0.00|11=G1|31=0.00|32=0|10=244|
8=FIX.4.4|9=139|35=8|49=EXCHANGE|56=CLIENT1|34=32|52=20250301-10:00:31.000|37=1008|17=21|150=F|39=1|55=XYZ|54=1|151=100|14=80|6=20.00|11=G1|31=20.00|32=80|10=222|
8=FIX.4.4|9=142|35=G|49=CLIENT1|56=EXCHANGE|34=33|52=20250301-10:00:32.000|41=G1|37=1008|11=G2|55=XYZ|54=1|38=180|40=2|44=21.00|59=0|60=20250301-10:00:32.000|10=212|
8=FIX.4.4|9=143|35=8|49=EXCHANGE|56=CLIENT1|34=34|52=20250301-10:00:33.000|37=1009|17=22|150=5|39=1|55=XYZ|54=1|151=100|14=80|6=20.00|11=G2|41=G1|31=0.00|32=0|10=128|
8=FIX.4.4|9=123|35=F|49=CLIENT1|56=EXCHANGE|34=35|52=20250301-10:00:34.000|41=G2|37=1009|11=G3|55=XYZ|54=1|38=180|60=20250301-10:00:34.000|10=148|
8=FIX.4.4|9=141|35=8|49=EXCHANGE|56=CLIENT1|34=36|52=20250301-10:00:35.000|37=1009|17=23|150=4|39=4|55=XYZ|54=1|151=0|14=80|6=20.00|11=G3|41=G2|31=0.00|32=0|10=038|
8=FIX.4.4|9=128|35=D|49=CLIENT1|56=EXCHANGE|34=37|52=20250301-10:00:36.000|11=H1|55=BAR|54=1|38=500|40=2|44=100.50|59=0|60=20250301-10:00:36.000|10=132|
8=FIX.4.4|9=134|35=8|49=EXCHANGE|56=CLIENT1|34=38|52=20250301-10:00:37.000|37=1010|17=24|150=0|39=0|55=BAR|54=1|151=500|14=0|6=0.00|11=H1|31=0.00|32=0|10=243|
8=FIX.4.4|9=136|35=8|49=EXCHANGE|56=CLIENT1|34=39|52=20250301-10:00:38.000|37=1010|17=25|150=F|39=1|55=BAR|54=1|151=400|14=100|6=100.50|11=H1|31=100.50|32=100|10=136|
8=FIX.4.4|9=136|35=8|49=EXCHANGE|56=CLIENT1|34=40|52=20250301-10:00:39.000|37=1010|17=26|150=F|39=1|55=BAR|54=1|151=250|14=250|6=100.50|11=H1|31=100.50|32=150|10=129|
8=FIX.4.4|9=135|35=8|49=EXCHANGE|56=CLIENT1|34=41|52=20250301-10:00:40.000|37=1010|17=27|150=F|39=1|55=BAR|54=1|151=200|14=300|6=100.48|11=H1|31=100.40|32=50|10=057|
8=FIX.4.4|9=135|35=8|49=EXCHANGE|56=CLIENT1|34=42|52=20250301-10:00:41.000|37=1010|17=28|150=F|39=1|55=BAR|54=1|151=100|14=400|6=100.44|11=H1|31=100.30|32=100|10=131|
8=FIX.4.4|9=135|35=8|49=EXCHANGE|56=CLIENT1|34=43|52=20250301-10:00:42.000|37=1010|17=29|150=F|39=2|55=BAR|54=1|151=0|14=500|6=100.40|11=H1|31=100.25|32=100|10=017|
8=FIX.4.4|9=130|35=D|49=CLIENT1|56=EXCHANGE|34=44|52=20250301-10:00:43.000|11=I1|55=MSFT|54=2|38=150|40=2|44=310.00|59=0|60=20250301-10:00:43.000|10=167|
8=FIX.4.4|9=136|35=8|49=EXCHANGE|56=CLIENT1|34=45|52=20250301-10:00:44.000|37=1011|17=30|150=0|39=0|55=MSFT|54=2|151=150|14=0|6=0.00|11=I1|31=0.00|32=0|10=041|
8=FIX.4.4|9=144|35=G|49=CLIENT1|56=EXCHANGE|34=46|52=20250301-10:00:45.000|41=I1|37=1011|11=I2|55=MSFT|54=2|38=150|40=2|44=305.00|59=0|60=20250301-10:00:45.000|10=066|
8=FIX.4.4|9=142|35=8|49=EXCHANGE|56=CLIENT1|34=47|52=20250301-10:00:46.000|37=1012|17=31|150=5|39=0|55=MSFT|54=2|151=150|14=0|6=0.00|11=I2|41=I1|31=0.00|32=0|10=079|
8=FIX.4.4|9=144|35=G|49=CLIENT1|56=EXCHANGE|34=48|52=20250301-10:00:47.000|41=I2|37=1012|11=I3|55=MSFT|54=2|38=100|40=2|44=300.00|59=0|60=20250301-10:00:47.000|10=065|
8=FIX.4.4|9=142|35=8|49=EXCHANGE|56=CLIENT1|34=49|52=20250301-10:00:48.000|37=1013|17=32|150=5|39=0|55=MSFT|54=2|151=100|14=0|6=0.00|11=I3|41=I2|31=0.00|32=0|10=082|
8=FIX.4.4|9=142|35=8|49=EXCHANGE|56=CLIENT1|34=50|52=20250301-10:00:49.000|37=1013|17=33|150=F|39=2|55=MSFT|54=2|151=0|14=100|6=300.00|11=I3|31=300.00|32=100|10=104|
